{
  "contractName": "dygnifyInvoice",
  "abi": [
    {
      "inputs": [
        {
          "internalType": "string",
          "name": "_buyerPan",
          "type": "string"
        },
        {
          "internalType": "string",
          "name": "_sellerPan",
          "type": "string"
        },
        {
          "internalType": "uint256",
          "name": "_amount",
          "type": "uint256"
        }
      ],
      "name": "createInvoice",
      "outputs": [
        {
          "internalType": "uint256",
          "name": "invoiceNo",
          "type": "uint256"
        }
      ],
      "stateMutability": "nonpayable",
      "type": "function"
    },
    {
      "inputs": [
        {
          "internalType": "uint256",
          "name": "invoiceNo",
          "type": "uint256"
        }
      ],
      "name": "showInvoiceDetails",
      "outputs": [
        {
          "components": [
            {
              "internalType": "string",
              "name": "BuyerPAN",
              "type": "string"
            },
            {
              "internalType": "string",
              "name": "SellerPAN",
              "type": "string"
            },
            {
              "internalType": "uint256",
              "name": "InvoiceAmount",
              "type": "uint256"
            },
            {
              "internalType": "uint256",
              "name": "InvoiceDate",
              "type": "uint256"
            }
          ],
          "internalType": "struct dygnifyInvoice.invoice",
          "name": "",
          "type": "tuple"
        }
      ],
      "stateMutability": "view",
      "type": "function",
      "constant": true
    },
    {
      "inputs": [],
      "name": "showAllInvoiceDetails",
      "outputs": [
        {
          "internalType": "uint256",
          "name": "len",
          "type": "uint256"
        },
        {
          "components": [
            {
              "internalType": "string",
              "name": "BuyerPAN",
              "type": "string"
            },
            {
              "internalType": "string",
              "name": "SellerPAN",
              "type": "string"
            },
            {
              "internalType": "uint256",
              "name": "InvoiceAmount",
              "type": "uint256"
            },
            {
              "internalType": "uint256",
              "name": "InvoiceDate",
              "type": "uint256"
            }
          ],
          "internalType": "struct dygnifyInvoice.invoice[]",
          "name": "",
          "type": "tuple[]"
        }
      ],
      "stateMutability": "view",
      "type": "function",
      "constant": true
    }
  ],
  "bytecode": "0x608060405234801561001057600080fd5b50610b15806100206000396000f3fe608060405234801561001057600080fd5b50600436106100415760003560e01c80636ac2ef01146100465780636dcb07dd14610065578063fb95f45014610095575b600080fd5b61004e6100c5565b60405161005c92919061088c565b60405180910390f35b61007f600480360381019061007a91906105e3565b61026d565b60405161008c9190610871565b60405180910390f35b6100af60048036038101906100aa919061066e565b61031f565b6040516100bc919061084f565b60405180910390f35b60006060600080549050915081600080805480602002602001604051908101604052809291908181526020016000905b8282101561025f5783829060005260206000209060040201604051806080016040529081600082018054610128906109b3565b80601f0160208091040260200160405190810160405280929190818152602001828054610154906109b3565b80156101a15780601f10610176576101008083540402835291602001916101a1565b820191906000526020600020905b81548152906001019060200180831161018457829003601f168201915b505050505081526020016001820180546101ba906109b3565b80601f01602080910402602001604051908101604052809291908181526020018280546101e6906109b3565b80156102335780601f1061020857610100808354040283529160200191610233565b820191906000526020600020905b81548152906001019060200180831161021657829003601f168201915b5050505050815260200160028201548152602001600382015481525050815260200190600101906100f5565b505050509050915091509091565b60008060008054905090506000604051806080016040528087815260200186815260200185815260200142815250908060018154018082558091505060019003906000526020600020906004020160009091909190915060008201518160000190805190602001906102e0929190610493565b5060208201518160010190805190602001906102fd929190610493565b5060408201518160020155606082015181600301555050809150509392505050565b610327610519565b6000828154811061033b5761033a610a45565b5b9060005260206000209060040201604051806080016040529081600082018054610364906109b3565b80601f0160208091040260200160405190810160405280929190818152602001828054610390906109b3565b80156103dd5780601f106103b2576101008083540402835291602001916103dd565b820191906000526020600020905b8154815290600101906020018083116103c057829003601f168201915b505050505081526020016001820180546103f6906109b3565b80601f0160208091040260200160405190810160405280929190818152602001828054610422906109b3565b801561046f5780601f106104445761010080835404028352916020019161046f565b820191906000526020600020905b81548152906001019060200180831161045257829003601f168201915b50505050508152602001600282015481526020016003820154815250509050919050565b82805461049f906109b3565b90600052602060002090601f0160209004810192826104c15760008555610508565b82601f106104da57805160ff1916838001178555610508565b82800160010185558215610508579182015b828111156105075782518255916020019190600101906104ec565b5b5090506105159190610541565b5090565b6040518060800160405280606081526020016060815260200160008152602001600081525090565b5b8082111561055a576000816000905550600101610542565b5090565b600061057161056c846108e1565b6108bc565b90508281526020810184848401111561058d5761058c610aa8565b5b610598848285610971565b509392505050565b600082601f8301126105b5576105b4610aa3565b5b81356105c584826020860161055e565b91505092915050565b6000813590506105dd81610ac8565b92915050565b6000806000606084860312156105fc576105fb610ab2565b5b600084013567ffffffffffffffff81111561061a57610619610aad565b5b610626868287016105a0565b935050602084013567ffffffffffffffff81111561064757610646610aad565b5b610653868287016105a0565b9250506040610664868287016105ce565b9150509250925092565b60006020828403121561068457610683610ab2565b5b6000610692848285016105ce565b91505092915050565b60006106a7838361075d565b905092915050565b60006106ba82610922565b6106c48185610945565b9350836020820285016106d685610912565b8060005b8581101561071257848403895281516106f3858261069b565b94506106fe83610938565b925060208a019950506001810190506106da565b50829750879550505050505092915050565b600061072f8261092d565b6107398185610956565b9350610749818560208601610980565b61075281610ab7565b840191505092915050565b6000608083016000830151848203600086015261077a8282610724565b915050602083015184820360208601526107948282610724565b91505060408301516107a96040860182610831565b5060608301516107bc6060860182610831565b508091505092915050565b600060808301600083015184820360008601526107e48282610724565b915050602083015184820360208601526107fe8282610724565b91505060408301516108136040860182610831565b5060608301516108266060860182610831565b508091505092915050565b61083a81610967565b82525050565b61084981610967565b82525050565b6000602082019050818103600083015261086981846107c7565b905092915050565b60006020820190506108866000830184610840565b92915050565b60006040820190506108a16000830185610840565b81810360208301526108b381846106af565b90509392505050565b60006108c66108d7565b90506108d282826109e5565b919050565b6000604051905090565b600067ffffffffffffffff8211156108fc576108fb610a74565b5b61090582610ab7565b9050602081019050919050565b6000819050602082019050919050565b600081519050919050565b600081519050919050565b6000602082019050919050565b600082825260208201905092915050565b600082825260208201905092915050565b6000819050919050565b82818337600083830152505050565b60005b8381101561099e578082015181840152602081019050610983565b838111156109ad576000848401525b50505050565b600060028204905060018216806109cb57607f821691505b602082108114156109df576109de610a16565b5b50919050565b6109ee82610ab7565b810181811067ffffffffffffffff82111715610a0d57610a0c610a74565b5b80604052505050565b7f4e487b7100000000000000000000000000000000000000000000000000000000600052602260045260246000fd5b7f4e487b7100000000000000000000000000000000000000000000000000000000600052603260045260246000fd5b7f4e487b7100000000000000000000000000000000000000000000000000000000600052604160045260246000fd5b600080fd5b600080fd5b600080fd5b600080fd5b6000601f19601f8301169050919050565b610ad181610967565b8114610adc57600080fd5b5056fea26469706673582212207ee839cdeba9b8f55208cbed87af9dc85604607bcdd63f7080c5a9ebd20d696564736f6c63430008070033",
  "immutableReferences": {},
  "source": "// SPDX-License-Identifier: MIT\npragma solidity ^0.8.7;\n\ncontract dygnifyInvoice{\n    struct invoice{\n        string BuyerPAN;\n        string SellerPAN;\n        uint InvoiceAmount;\n        uint InvoiceDate;\n    }\n  \n    invoice[] invoiceList;\n\n    function createInvoice(string memory _buyerPan,string memory _sellerPan, uint _amount) public returns(uint invoiceNo){\n        uint len = invoiceList.length;\n        invoiceList.push(invoice(_buyerPan,_sellerPan,_amount,block.timestamp));\n        return len;\n    }\n\n    function showInvoiceDetails(uint invoiceNo) public view returns(invoice memory){\n        return invoiceList[invoiceNo];\n    }\n\n    function showAllInvoiceDetails() public view returns(uint len,invoice[] memory){\n        len = invoiceList.length;\n        return (len,invoiceList);    \n    }    \n}",
  "sourcePath": "C:\\Users\\RAJDEEP\\Desktop\\JOB\\Freelance\\Intershala Assignment\\Dygnify Ventures Private Limited\\contracts\\dygnify.sol",
  "compiler": {
    "name": "solc",
    "version": "0.8.7+commit.e28d00a7.Emscripten.clang"
  },
  "schemaVersion": "3.4.3",
  "updatedAt": "2022-12-16T08:12:21.744Z",
  "networkType": "ethereum",
  "devdoc": {
    "kind": "dev",
    "methods": {},
    "version": 1
  },
  "userdoc": {
    "kind": "user",
    "methods": {},
    "version": 1
  }
}